S0110000474C43445F746573742E73726563DA
S113000065C000006DC000006BC0000069C0000046
S113001067C0000065C0000063C0000061C000004C
S11300205FC000005DC000005BC0000059C000005C
S113003057C0000055C0000053C0000051C000006C
S11300404FC000004DC000004BC0000049C000007C
S113005047C0000045C0000043C0000041C000008C
S11300603FC000003DC000003BC0000039C000009C
S113007037C0000035C0000033C0000031C00000AC
S11300802FC000002DC000002BC0000029C00000BC
S113009027C0000025C0000023C0000021C00000CC
S11300A01FC000001DC000001BC0000019C00000DC
S11300B017C0000015C0000013C0000011C00000EC
S11300C00FC000000DC000000BC0000011241FBEB3
S11300D0CFEFD1E2DEBFCDBF00E00CBF88D089C036
S11300E08FCF86E082B912B808950F931F93CF93F0
S11300F0DF9320E030E0E0EBF0E090E0A1E0B0E05E
S1130100AC01022E02C0559547950A94E2F740FFD0
S113011009C0AD01022E02C0440F551F0A94E2F734
S1130120E42BF52B2F5F3F4F2430310549F784E052
S113013090E0A0E1B0E070E0C1E0D0E09B01AB0151
S1130140082E02C0559547950A94E2F740FF0BC06C
S1130150AC01445051098E0102C0000F111F4A9591
S1130160E2F7A02BB12B01968830910539F780E096
S113017090E060E070E0C1E0D0E0A901082E02C088
S1130180559547950A94E2F740FF09C0AE01082E41
S113019002C0440F551F0A94E2F7642B752B019695
S11301A08430910551F782E082B9E8B9A8B968B9F9
S11301B088B112B896DFDF91CF911F910F91089506
S11301C01F93CF93DF9310E00BC06C2F812F8DDF33
S11301D02196C11581E0D807C1F71F5F103119F0CE
S11301E0C0E0D0E0F2CFDF91CF911F910895E8DF16
S10901F0FECFF894FFCFDE
S9030000FC
