S00E00006B65797061642E7372656398
S113000012C021C020C01FC01EC01DC01CC01BC008
S11300101AC019C018C060C08BC015C014C013C06A
S113002012C011C010C011241FBECFE5D4E0DEBF42
S1130030CDBF20E0A0E6B0E001C01D92AB3AB2070C
S1130040E1F7E8D038C1DCCF2F923F92F101839BD6
S113005007C0A081B181A05ABF4F8C9181608C935D
S1130060849B07C0A081B181A05ABF4F8C9182604C
S11300708C93B69B07C0A081B181A05ABF4F8C91CD
S113008084608C93B79920C0859B07C0A081B181FF
S1130090A05ABF4F8C9180618C93869B07C0A0812E
S11300A0B181A05ABF4F8C9180628C93879B08C00A
S11300B00190F081E02DE05AFF4F808180648083BD
S11300C086B33F902F900895A081B181A05ABF4F6D
S11300D08C9188608C93D8CF1F920F920FB60F9299
S11300E011242F938F939F93EF93FF938BB12CB194
S11300F08C71E0916800EF5FEF7190916700E917F0
S1130100A9F0E0936800F0E0E559FF4F2083909157
S11301106600892B80936600FF91EF919F918F91E8
S11301202F910F900FBE0F901F90189582E0EFCF84
S11301301F920F920FB60F9211248F939F93EF93F8
S1130140FF9390916A00809169009817A1F0E09163
S11301506900EF5FEF71E0936900F0E0E557FF4F4E
S113016080818CB9FF91EF919F918F910F900FBE79
S11301700F901F9018955598F5CF2F923F920F939B
S11301801F93CF93DF9300D0CDB7DEB79A838983D3
S113019082309105C1F1ACF084309105E9F05CF155
S11301A0059731F4A99ACE0101961C014DDFA99857
S11301B00F900F90DF91CF911F910F913F902F904F
S11301C00895009789F0019799F7C29ACE01019694
S11301D01C013ADFC298ECCF8E010F5F1F4FA89A23
S11301E0180132DFA898E4CFC19ACE0101961C0110
S11301F02BDFC198DDCFC49A8E010F5F1F4F18010A
S113020023DFC498ECCFC39ACE0101961C011CDFF6
S1130210C398CECF10926A001092690010926800C1
S11302201092670010BC83E389B988E98AB986E82B
S113023080BD8EE187BB83E084BB82E081BB11E695
S11302400AE5C0E0D0E0CE0198DF2196C630D105A2
S1130250D1F726E030E090916A009F5F9F71809112
S113026069009817E1F3E92FF0E0E557FF4F108399
S113027090936A00559A2150310969F710926000F1
S11302801092610010926200109263001092640058
S11302901092650090916A009F5F9F718091690040
S11302A09817E1F3E92FF0E0E557FF4F00839093AF
S10D02B06A00559AC6CFF894FFCFF8
S9030000FC
