:1000000012C021C020C01FC01EC01DC01CC01BC00C
:100010001AC019C018C017C016C015C014C013C02C
:1000200012C011C010C011241FBECFE5D4E0DEBF46
:10003000CDBF20E0A0E6B0E001C01D92A636B20719
:10004000E1F7A7D0C1C0DCCF2F923F92F101839A94
:10005000A081B181A05ABF4F8C9181608C93849A0A
:10006000A081B181A05ABF4F8C9182608C93B69AC7
:10007000A081B181A05ABF4F8C9184608C93B79AB4
:10008000A081B181A05ABF4F8C9188608C93859AD2
:10009000A081B181A05ABF4F8C9180618C93869AC8
:1000A000A081B181A05ABF4F8C9180628C93879AB6
:1000B000A081B181A05ABF4F8C9180648C93B09A7B
:1000C0000190F081E02DE05AFF4F808181608083B4
:1000D0003F902F9008952F923F920F931F93CF93AD
:1000E000DF9300D0CDB7DEB79A8389838230910544
:1000F00009F447C0C4F084309105B1F10CF445C057
:10010000059741F48E010F5F1F4FA99A18019CDFDC
:1001100085B385BB0F900F90DF91CF911F910F9109
:100120003F902F900895009719F1019799F78E014C
:100130000F5F1F4FC29A180187DF88B388BBC39A2D
:10014000180182DF88B388BBC49A18017DDF88B3A9
:1001500088BBA89A180178DF85B385BBA99A1801D6
:1001600073DF85B385BBD6CF8E010F5F1F4FF1CFF5
:10017000C09A8E010F5F1F4F180166DF88B388BBDE
:10018000D9CF8E010F5F1F4FDACF8E010F5F1F4F48
:10019000DBCF8EE187BB83E084BB82E081BBC0E024
:1001A000D0E0CE0198DF2196C630D105D1F710926C
:1001B0006000109261001092620010926300109231
:0C01C000640010926500EBCFF894FFCFB4
:00000001FF
