S00E00006B65797061642E7372656398
S113000012C021C020C01FC01EC01DC01CC01BC008
S11300101AC019C018C017C016C015C014C013C028
S113002012C011C010C011241FBECFE5D4E0DEBF42
S1130030CDBF20E0A0E6B0E001C01D92A636B20715
S1130040E1F797D0D0C0DCCF2F923F92F101829B91
S113005007C0A081B181A05ABF4F8C9181608C935D
S1130060839B07C0A081B181A05ABF4F8C9182604D
S11300708C93B69B07C0A081B181A05ABF4F8C91CD
S113008084608C93B79920C0859B07C0A081B181FF
S1130090A05ABF4F8C9180618C93869B07C0A0812E
S11300A0B181A05ABF4F8C9180628C93879B08C00A
S11300B00190F081E02DE05AFF4F808180648083BD
S11300C086B33F902F900895A081B181A05ABF4F6D
S11300D08C9188608C93D8CF2F923F920F931F936B
S11300E0CF93DF9300D0CDB7DEB79A838983823074
S11300F09105C1F1ACF084309105E9F05CF105970C
S113010031F4A99ACE0101961C019EDFA9980F90A3
S11301100F90DF91CF911F910F913F902F900895F1
S1130120009789F0019799F7C29ACE0101961C01B4
S11301308BDFC298ECCF8E010F5F1F4FA89A180176
S113014083DFA898E4CFC19ACE0101961C017CDF1D
S1130150C198DDCFC49A8E010F5F1F4F180174DF61
S1130160C498ECCFC39ACE0101961C016DDFC398ED
S1130170CECF539A80B5806880BD80B5826080BD43
S113018080B5846080BD83E389B98EE187BB83E059
S113019084BB82E081BB06E610E0C0E0D0E0CE0183
S11301A09BDF2196C630D105D1F7A0E6B0E0ED91F2
S11301B0F0E08081882339F031968CB95D9BFECFC5
S11301C080818111F9CF0A171B0789F7109260000B
S11301D01092610010926200109263001092640009
S10D01E010926500DACFF894FFCF07
S9030000FC
