:1000000012C02CC02BC02AC029C028C027C026C0BF
:1000100025C024C023C063C08EC020C01FC01EC026
:100020001DC01CC01BC011241FBECFE5D4E0DEBF25
:10003000CDBF10E0A0E6B0E0E2E9F2E002C005903A
:100040000D92A036B107D9F720E0A0E6B0E001C0DC
:100050001D92AB3AB207E1F7DAD019C1D1CF2F9296
:100060003F92F101839AA081B181A05ABF4F8C9138
:1000700081608C93849AA081B181A05ABF4F8C91EA
:1000800082608C93B69AA081B181A05ABF4F8C91A7
:1000900084608C93B79AA081B181A05ABF4F8C9194
:1000A00088608C93859AA081B181A05ABF4F8C91B2
:1000B00080618C93869AA081B181A05ABF4F8C91A8
:1000C00080628C93879A0190F081E02DE05AFF4F77
:1000D000808180648083B09A3F902F9008951F9212
:1000E0000F920FB60F9211242F938F939F93EF933C
:1000F000FF938BB12CB18C71E0916800EF5FEF71D1
:1001000090916700E917A9F0E0936800F0E0E559E5
:10011000FF4F208390916600892B80936600FF91AA
:10012000EF919F918F912F910F900FBE0F901F9085
:10013000189582E0EFCF1F920F920FB60F92112405
:100140008F939F93EF93FF9390916A008091690042
:100150009817A1F0E0916900EF5FEF71E0936900FB
:10016000F0E0E557FF4F80818CB9FF91EF919F91AF
:100170008F910F900FBE0F901F9018955598F5CF47
:100180002F923F92CF93DF9300D0CDB7DEB79A8303
:10019000898382309105C9F1A4F08430910519F169
:1001A00094F1059739F4A99ACE0101961C0157DF05
:1001B00085B385BB0F900F90DF91CF913F902F902B
:1001C00008950097F1F00197A9F7C29ACE01019620
:1001D0001C0145DF88B388BB0F900F90DF91CF9152
:1001E0003F902F900895A89ACE0101961C0137DF09
:1001F00085B385BB0F900F90DF91CF913F902F90EB
:100200000895C09AE3CFC49AE1CFC39ADFCF10928A
:100210006A0010926900109268001092670010BC8A
:1002200083E389B988E98AB986E880BD8EE187BB16
:1002300083E084BB82E081BB11E6C0E0D0E0CE0168
:100240009FDF2196C630D105D1F726E030E09091AE
:100250006A009F5F9F71809169009817E1F3E92F11
:10026000F0E0E557FF4F108390936A00559A2150B4
:10027000310969F7109260001092610010926200DB
:10028000109263001092640010926500D6CFF8942B
:02029000FFCF9E
:00000001FF
